:1000000052C3000078C3000076C300000C940C2A91
:1000100072C300000C94E7296EC300006CC300009B
:100020006AC3000068C3000066C3000064C3000028
:1000300062C3000060C300005EC300005CC3000038
:100040000C94DC2458C300000C9463240C94952475
:1000500052C3000050C300004EC300004CC3000058
:100060004AC3000048C300007F187F188C194E193E
:1000700017197F187F187F1817194E192020202074
:10008000202000257500256400222563223A25647E
:10009000002C2256223A5B0022257322006C6F67E7
:1000A0004944006C6F6754797065002575006E7562
:1000B0006C6C002225732200537461746500526FCA
:1000C0006F6D54656D7000467269646765416E6E50
:1000D00000467269646765536574004672696467B7
:1000E0006554656D700042656572416E6E004265D3
:1000F0006572536574004265657254656D700022C7
:10010000257322004E3A7B2276223A222553222C56
:10011000226E223A222553222C2273223A25642C65
:100120002279223A25642C2262223A222563222C4B
:10013000226C223A222564227D00302E322E31306C
:1001400000756E6B6E6F776E00255320736574209B
:10015000746F2025732025530046726964676520FB
:1001600074656D7000426565722074656D70004D38
:100170006F64650062792074656D70657261747575
:1001800072652070726F66696C6500696E207765B4
:100190006220696E7465726661636500706F73508A
:1001A00065616B006E65675065616B00706F7350C1
:1001B00065616B457374006E65675065616B45736F
:1001C00074006573745065616B00640069007000B1
:1001D00062656572536C6F70650064696666496E2E
:1001E00074656772616C0062656572446966660079
:1001F0006873006C61680062656572536C6F70654E
:1002000046696C740062656572536C6F7746696C01
:100210007400626565724661737446696C74006649
:100220007269646765536C6F706546696C740066CB
:100230007269646765536C6F7746696C74006672A7
:10024000696467654661737446696C74006D6178B2
:10025000436F6F6C54696D65466F72457374006DC2
:1002600061784865617454696D65466F7245737451
:1002700000636F6F6C5461726765744C00636F6FDD
:100280006C5461726765744800686561745461728A
:100290006765744C00686561745461726765744881
:1002A0000069646C6552616E67654C0069646C65D9
:1002B00052616E67654800694D6178457272004B06
:1002C00064004B69004B70007069644D6178007484
:1002D000656D705365744D61780074656D7053651C
:1002E000744D696E0074656D70466F726D61740057
:1002F000636F6F6C45737400686561744573740057
:1003000066726964676553657400626565725365FA
:1003100074006D6F64650012030000ED110A0300A4
:10032000008D11000300000D12F8022F03880EF05B
:10033000023103880EE5020000440EDA0234034C59
:100340000ECF0236034C0EC8025803900EC5023879
:1003500003880EC2023A03880EBF023C03880EB720
:10036000023E03900EAC024003900EA102420390A5
:100370000E95024403900E89024603900E7D0248BA
:1003800003900E71024A03900E5F024C03980E4DCB
:10039000024E03980EF3015603A00EF0015703A07E
:1003A0000E3E020000540E2F020100540E1F0202E6
:1003B00000540E12020300540E05020400540EF7FE
:1003C000010500540EE7010003DA010203D0010623
:1003D00003CE010802CC010A02CA010C02C2010EBE
:1003E00001B7011001AC011201A40114019C011616
:1003F00001E5020004DA020101CF020301C802256F
:1004000003C5020502C2020702BF020902B7020BBE
:1004100003AC020D03A1020F03950211038902131D
:10042000037D021503710217035F0219054D021BBC
:10043000053E021D002F021E001F021F0012022097
:100440000005022100F7012200F3012300F001243E
:100450000000020400030001100302000003020177
:100460000006000400060500200605040003020142
:10047000002300010013020000030504000303042D
:1004800010030503200000000046726964676520C0
:10049000646F6F7220255300636C6F736564006F27
:1004A00070656E6564004300A200DC000A800000F5
:1004B000030001000200FE9A009AFF660066FF58E2
:1004C00002B0040104030304040000001466616C1C
:1004D00073650074727565006E756C6C0025642E12
:1004E000253033640025642E253032640025642EC7
:1004F00025303164006E756C6C00256468253032DF
:10050000646D2530326400556E6B6E6F776E2073AC
:100510007461747573210054656D702E20636F6E65
:1005200074726F6C204F464600446F6F72206F707C
:10053000656E0057616974696E6720666F7220701E
:1005400065616B0049646C00496E76616C6964207A
:100550006D6F6465002A2A2054657374696E672084
:100560002A2A004F66660050726F66696C650052F9
:100570006F6F6D2020004D6F646500202D2D2E2D96
:1005800000002074696D65206C65667400576169B0
:100590007420746F2000696E6720666F7200486572
:1005A000617400436F6F6C00436F6E73742E00466E
:1005B0007269646765200042656572200000000072
:1005C0000800020100000304070000000000000012
:1005D00000010204081020408001020408102001DC
:1005E00002040810200404040404040404020202A7
:1005F000020202030303030303000000002300269A
:1006000000290000000000250028002B0000000049
:1006100000240027002A0042656572004672696462
:1006200067650025532074656D70207365742074B0
:100630006F20257320696E204D656E752E00546500
:100640006D7020636F6E74726F6C207475726E655E
:1006500064206F666620696E206D656E752E00439E
:1006600068616E67656420746F2070726F66696C74
:1006700065206D6F646520696E206D656E752E0056
:1006800020202020202020202020202020000F04B7
:100690002B0B161BC72154260127DF291804420BF8
:1006A0002F1BD2210A2711241FBECFEFD8E0DEBFB7
:1006B000CDBF12E0A0E0B1E0EAEBF7E602C00590A2
:1006C0000D92A635B107D9F724E0A6E5B2E001C046
:1006D0001D92AA38B207E1F716E0CCE9D6E004C0D3
:1006E0002297FE010E94E02ECE38D107C9F70E9462
:1006F00015270C94D1330C9420272EE131E0FC0116
:10070000318320830895FC0162830895FC01828176
:1007100008952EE131E0FC013183208308952EE11C
:1007200031E0FC01318320830C94D92408952EE11B
:1007300031E0FC01318320830C94D92408958F92F9
:100740009F92AF92BF92CF92DF92EF92FF920E9460
:10075000EB2B0E94090F0E94C0140E9454140E94A7
:1007600026254B015C010E94F92B6B017C010E9444
:100770002625681979098A099B09C616D706E8064D
:10078000F90618F00E94022CF2CF0E94FD2BFF9078
:10079000EF90DF90CF90BF90AF909F908F90089593
:1007A0000F931F930E94022C0E94292C811130C0AC
:1007B0000E94262500910A0110910B0120910C0145
:1007C00030910D01601B710B820B930B683E7340DF
:1007D00081059105E8F00E94262560930A01709337
:1007E0000B0180930C0190930D010E949C140E94B8
:1007F000271A0E942D15109111030E94061880914E
:10080000110318130E946B110E94D4190E941F2C0F
:100810000E94D5121F910F910895C2CF08958AE2C8
:1008200091E09093570280935602109258020895D7
:100830008EE191E0909357028093560208952FEF36
:100840002F5FFC01E20FF11D27FDFA953081332364
:1008500021F06313F5CF822F08958FEF089526E7D7
:1008600031E0FC0131832083089580E00895DC01AC
:10087000ED91FC910084F185E02D099521E0811531
:10088000904809F420E0822F089580E090E80895D0
:100890002EE931E0FC013183208308952EE931E017
:1008A000FC013183208308952EE931E0FC0131837E
:1008B000208308952EE131E0FC01318320830895E7
:1008C00026E731E0FC0131832083089580E008951C
:1008D00026E731E0FC01318320830C94D92408956C
:1008E0002EE931E0FC01318320830C94D924089552
:1008F0002EE931E0FC01318320830C94D924089542
:100900002EE931E0FC01318320830C94D924089531
:100910002EE131E0FC01318320830C94D924089529
:1009200026E731E0FC01318320830C94D92408951B
:10093000FC012281622783810C94D5250895CF93F1
:10094000DF93EC018B810E94072621E0892B09F4BB
:1009500020E08A818227DF91CF910895CF93DF93A2
:10096000EC018B810E9407262A8130E041E082174A
:10097000930709F440E0842FDF91CF9108950F93FE
:100980001F93CF93DF938B01EA01FC01608182E327
:1009900091E055DF87FD08C0C80FD11D87FDDA95AE
:1009A000C8010E946D306883DF91CF911F910F9134
:1009B00008950F931F93CF93DF938B01EA01FC01FE
:1009C000608188E391E03BDF87FD08C0C80FD11D3F
:1009D00087FDDA95C8010E946D306883DF91CF9161
:1009E0001F910F91089586E791E090936F02809395
:1009F0006E028EE191E090937102809370028EE915
:100A000091E090937402809373020895613029F409
:100A10008250823058F080E00895623019F48130BD
:100A2000D1F704C06111F7CF8111F5CF81E00895AE
:100A30007F936F932FE331E03F932F938F9385E460
:100A40008F930E94B80D0F900F900F900F900F9002
:100A50000F900895A0E0B0E0E0E3F5E00C941A2FC9
:100A60008C01FC018381813021F1823009F04AC080
:100A7000F80184810E94C1297C0180E190E00E94FC
:100A8000D624EC01F801D7848CE492E09983888322
:100A9000FB82EA821D821C8281E08F87B801695F38
:100AA0007F4F48E050E0CE0106960E94AC30DE86D3
:100AB0002BC084E090E0623089F40E94D624EC01DF
:100AC000F801F580148128EA31E03983288362E057
:100AD000812F0E949C25FA821B8316C00E94D62477
:100AE000EC01F8018581148122E931E03983288302
:100AF0008A831B8360E0CE011BDF61E0812F0E94AF
:100B00009C2502C0C0E0D0E0CE01CDB7DEB7E7E063
:100B10000C94362FFC018081823078F48181823000
:100B200060F4E281E150E93040F4F0E0EE0FFF1FA5
:100B3000E05AFE4F80819181089580E090E0089511
:100B4000A1E2B0E0E6EAF5E00C941B2F7C01162F41
:100B5000211105C06CE249A30E94BC2449A1842F45
:100B6000992787FD90959F934F931F921F9389E834
:100B700090E09F938F938E010F5F1F4F1F930F93F2
:100B80000E94E730B801C7010E94BA240FB6F8945A
:100B9000DEBF0FBECDBFA196E6E00C94372F0CC68A
:100BA0000895FB012081222399F0213408F0275376
:100BB0002295207FFB013181313410F0375301C081
:100BC0003053232BFC012193CF016E5F7F4FE9CF80
:100BD0000895A2E0B0E0EFEEF5E00C94192F6C015F
:100BE0007B018A01FC01608188EB91E028DEF6013F
:100BF0009081913631F448E0B701C8010A96D1DFFF
:100C000020C09A3699F4B701CE0101960E94FF1DCB
:100C10008823B9F08981992787FD909525E09595DE
:100C200087952A95E1F7F80181870BC087FD09C0F8
:100C3000080F111D87FD1A95C7010E946D30F8013C
:100C400060832296E8E00C94352FCF93DF93DA018E
:100C5000FC0170E09F01281B390B26173707BCF4F5
:100C6000EF01208122952F702A3010F0295C01C0FD
:100C7000205D2C93319628812F702A3010F0295C4A
:100C800001C0205D11962C9311971296E3CFFB01C2
:100C9000EE0FFF1FE40FF51F1082DF91CF91089533
:100CA000FC0120812F3F49F48381811110C081E034
:100CB000FB01928191110CC008C0332727FD3095AC
:100CC00050E081E02417350719F080E0089581E0B5
:100CD0000895A2E1B0E0EFE6F6E00C941C2F8C0141
:100CE000F12C6F2DCE01019667D5882331F1F801E3
:100CF00083819C8189131FC08130C1F08230F9F457
:100D00008885882399F088E0815080F0282F30E092
:100D1000F801E20FF31FA8E0B0E0AC0FBD1FA20F77
:100D2000B31F47819C91491779F305C0F80194815D
:100D30008D81981721F0F394D4CF8FEF01C08F2DC0
:100D40006296E5E00C94382F81508C3030F4E82F17
:100D5000F0E0EC5AFE4F8081089580E00895FF9204
:100D60000F931F93CF93DF938C01D4DEEC01009798
:100D700009F45BC0D8011296FC908F2DE5DF82301C
:100D800009F440C0833061F1813009F04EC08881A0
:100D90009981B6E0FB120E94981FE2E08E369E0712
:100DA00009F443C0D80112962C91263029F42EE67E
:100DB00032E0398328830AC0E881F9812EE632E0E7
:100DC00031832083EF50FF4F2FEF2083009769F18D
:100DD000DC01ED91FC910280F381E02D099525C0A5
:100DE00088819981B2E080379B07F9F0009739F04C
:100DF000DC01ED91FC910680F781E02D099580E7FB
:100E000092E011C088819981B2E083379B0769F035
:100E1000009739F0DC01ED91FC910480F581E02D23
:100E2000099583E792E099838883CDB7DEB7E5E043
:100E30000C94382FA2E1B0E0E0E2F7E00C941E2F12
:100E400081E089838A8310E01B83CE01019687DFCE
:100E50001F5F1031C9F76296E3E00C943A2FA1E0CE
:100E6000B0E0E5E3F7E00C94192F6C01DC01129679
:100E70008C916ADF682FC60169834CDE8C01698121
:100E80000097D1F1F6018681811136C0613049F0B9
:100E900098F1643088F5C601DDDDD8018D939C930F
:100EA0002BC061E0C601D6DD7C01D8018D919C91FB
:100EB000892B29F4F601628170E082E0B9DDD60168
:100EC00012968C91863061F4D701ED91FC910680E9
:100ED000F781E02DC7010995F801F182E0820CC08D
:100EE000D8018D919C91FC01F182E082EF50FF4F7F
:100EF0002FEF20830E949B1E2196E8E00C94352F53
:100F0000FF920F931F93CF93DF93EC012881622F01
:100F100070E06530710514F084E060C09981692F3C
:100F200070E06730710514F085E058C08A81682F41
:100F300070E0603171050CF050C0882321F08930D9
:100F400008F04FC006C0911102C02223E9F080E0F2
:100F500003C0211119C081E01F922F931F929F930C
:100F60001F928F938DE391E09F938F9387E08F93F0
:100F700085E48F93FDD58DB79EB70A960FB6F8948A
:100F80009EBF0FBE8DBF2BC0DFDEF82E0B81602F02
:100F90003DDD182F811116C01F920F931F92FF92F3
:100FA0002EE331E03F932F9388E08F9385E48F9376
:100FB000DFD58DB79EB708960FB6F8949EBF0FBECB
:100FC0008DBF13C0023089F48C810E94C129892B06
:100FD00061F46C8170E089E001C086E029DD10E0F9
:100FE00004C09111D1CF82E0B7CF812FCDB7DEB74A
:100FF000E5E00C94382FA1E1B0E0E1E0F8E00C94DA
:10100000172FA82E8B016A017901FB0182819CDEDA
:10101000B82E80916D02811104C06CE2C7010E945C
:10102000BC2410926D026BE7C7010E94BC2421E032
:101030004A2D69E6C70184DD20E04B2D64E7C70136
:101040007FDD20E0F801408163E6C70179DD20E023
:10105000F801418162E6C70173DD20E0F8014281B9
:1010600066E6C7016DDD20E0F801438168E6C7014F
:1010700067DD20E0F801468164E6C70161DD20E01C
:10108000F801448160E7C7015BDDC114D10469F058
:10109000F6018081882349F061E471E0C7010E9474
:1010A000BA24B601C7010E94BA24F80183818130B5
:1010B00029F420E0458168E7C70142DDF80183811A
:1010C0008230B1F467E471E0C7010E94BA24AE0136
:1010D0004F5F5F4F68E0C8010796B7DDBE016F5FE5
:1010E0007F4FC7010E94BA2462E2C7010E94BC245C
:1010F000F80183818230D1F44785F0E24F02A001EC
:101100001124662757FD6095762F08E023E0CE0175
:1011100001960E94691C6EE471E0C7010E94BA2426
:10112000BE016F5F7F4FC7010E94BA246DE7C70100
:101130000E94BC246196EAE00C94332FA4E2B0E054
:10114000E4EAF8E00C941B2F7C0162E18BE592E06D
:1011500073D36BE572E089EE95E00E948D12609189
:101160005B02613108F079C0CE01019625D342E1DE
:1011700050E0BE016F5F7F4FCE0143960E94AC30BE
:1011800080915C0287FF8B8B80915D0287FF8C8B47
:1011900080915E0287FF8D8B80915F0287FF8E8B2F
:1011A0008091600287FF8F8B809164028F3F09F0EE
:1011B0008AA38091610287FF888F809165028F3FAB
:1011C00041F048E050E065E672E0CE014A960E94A8
:1011D000AC308091630287FF898F8D89811104C0B3
:1011E00062E1CE01439630D340915B02BE016F5F56
:1011F0007F4FCE01439684DE882391F0CE01019685
:10120000AEDDCE014396ABDDCE01439628DE609184
:101210005B02CE014396F0D28E010D5E1F4F10C0CF
:101220004DE451E05F934F9383E08F9385E48F9378
:101230009FD40F900F900F900F908E010F5F1F4F54
:1012400085E510D681E080936D02970140E050E083
:10125000B80180915B02CFDE00D6A496E6E00C9444
:10126000372FFB0123853485AB014F5F5F4FBC01F6
:101270008081C1CE08958F929F92AF92BF92CF92FC
:10128000DF92EF92FF920F93CF93DF93CDB7DEB74C
:101290006D970FB6F894DEBF0FBECDBF7C014B013A
:1012A0005A016901FB018481882339F04DDDF70182
:1012B0006381ACDB882309F45BC0C7010ADDF6015A
:1012C0008083118287FD07C0F4019381911150C082
:1012D000682FC70164DCF4018281882309F444C0CB
:1012E000F7018381823009F03FC04601FFEF8F1A7A
:1012F0009F0A8DE0F7013496DE01519601900D9220
:101300008A95E1F789890E94C1292CE432E03A8369
:1013100029839C838B831E821D8281E0888B48E019
:1013200050E0BE016C5E7F4FCE0107960E94AC304C
:101330001F86CE0101960E94C82D882329F0CE0178
:1013400001960E94582E02C080E090E8AC0166270A
:1013500057FD6095762F09E023E0C4010E94441CEC
:10136000CE0101960E94652DB601C701F5010995D0
:101370006D960FB6F894DEBF0FBECDBFDF91CF9153
:101380000F91FF90EF90DF90CF90BF90AF909F9024
:101390008F900895A2E1B0E0E0EDF9E00C94172FF2
:1013A0008C017B016A0162E1CE0101964DD281E0A0
:1013B0008C838983B12CAA24A3948B2D0E94C929E4
:1013C00087FD10C0F80191819F3F11F0981308C06C
:1013D0008D83AE829601A701B801CE0101964BDF45
:1013E000B394EBCFB12C8B2D0E94D32987FD0FC076
:1013F000F80191819F3F11F0981307C08D839601EA
:10140000A701B801CE01019636DFB394ECCF629606
:10141000EAE00C94332FA4E1B0E0E1E1FAE00C94AF
:10142000142F7C016B015A01912C8824839442E093
:10143000742E892D0E94D929182F87FD3CC062E1A6
:10144000CE01019601D2F70181818F3F11F0811306
:1014500030C01D838982812F0E94C1298C01009791
:1014600041F10E94F421BE01685F7F4FC8010E94D4
:1014700005228823F1F08885883211F47C8201C02E
:101480001C828C81823071F4B801CE0143960E9497
:10149000332CBE01685F7F4FCE0143960E94DB2C48
:1014A0008111E1CF9501A601B701CE010196E3DEDE
:1014B000DACF9394BECF6496EDE00C94302FEF9288
:1014C000FF920F931F93CF93DF93EC018B017A016F
:1014D00088818F3F41F0823031F088818F3F41F029
:1014E000813051F405C0A701B801CE0194DFF5CFDA
:1014F000A701B801CE014EDFCDB7DEB7E6E00C9410
:10150000372FA2E1B0E0E7E8FAE00C941D2F8C0140
:10151000198A188A8FEF8F878E871A8ABE01625FB9
:101520007F4F8FEB94E0F9D71D870C8781E0809384
:101530006D02AE014F5F5F4F61E379E0CE010E9621
:10154000BEDF6296E4E00C94392FAF92BF92DF9237
:10155000EF92FF920F931F93CF93DF931F92CDB71C
:10156000DEB78C017B015A01DB011296DC908D2DD8
:10157000EBDB282F882309F463C0C7012983CADA6B
:10158000FC012981009709F45BC0D80112963C91B7
:1015900037FD10C0233071F480819181DC01ED9121
:1015A000FC9161E0311101C060E00190F081E02D1B
:1015B000099546C0D80111968C91813009F040C040
:1015C000223049F480819181DC01ED91FC91019000
:1015D000F081E02D24C02130C1F480819181B6E0FA
:1015E000DB120E94981FDC01ED91FC910084F185D3
:1015F000E02D0995AC01662757FD6095762F09E02F
:1016000023E0C5010E94441C1BC02330C9F4808123
:101610009181DC01ED91FC910280F381E02D09952F
:101620001F928F9383E890E09F938F93BF92AF9226
:101630000E94E7300F900F900F900F900F900F9037
:101640000F90DF91CF911F910F91FF90EF90DF905E
:10165000BF90AF90089582EB91E0909374028093D5
:101660007302109275028AE291E090937102809366
:1016700070021092720284E891E090936F0280935E
:101680006E020895B0C90895A0E2B0E0EAE4FBE07C
:101690000C941C2F8C0164E0CE014D96CDD018A285
:1016A000BE01635E7F4F89ED94E037D78D8D8E3F0D
:1016B00061F48F8D87FD31C061E0811101C060E070
:1016C0008AE593E00E94AC1F28C081E080936D0200
:1016D000F12C6F2DCE0101966FD08823F1F04F2DA4
:1016E000BE016F5F7F4FCE014D96DADA882399F005
:1016F0001B8AAE014D5E5F4FBE016F5F7F4FCE0113
:101700004D9623DF9801AE014D5E5F4FBE016F5FC6
:101710007F4F8F2D70DCF394DCCFA096E5E00C9426
:10172000382F80E090E00E94023391E0843009F08D
:1017300090E0892F08950F931F93CF93DF93C0E01C
:10174000D0E060E0CE010E9419332196C11584E0FB
:10175000D807B9F76FDB0E9446170E946F1706E0A3
:1017600010E0C8010E94F416E801A89606591F4F20
:10177000CE010E94FC162B96C017D107C9F7CE3AAE
:1017800081E0D80711F08E01ECCF64E080E090E0BA
:101790000E9419330E94C014DF91CF911F910F91C5
:1017A00008958EE290E00C94FC16089586E090E097
:1017B0000E94F416F6CF0895A1E0B0E0E2EEFBE05F
:1017C0000C941D2F8C016983ACDF6981882311F093
:1017D000603110F080E00CC082E1689FB0011124FC
:1017E00062557E4F42E150E0C8010E94F23281E032
:1017F0002196E4E00C94392FA1E0B0E0E2E0FCE0B7
:101800000C941D2F8C0169838CDF6981882311F072
:10181000603110F080E00CC082E1689FB0011124BB
:1018200062557E4F42E150E0C8010E940A3381E0D8
:101830002196E4E00C94392F2FEF615020F0FC0149
:101840002193CF01FACF0895615020F0FC0111924D
:10185000CF01FACF0895A2E1B0E0E1E3FCE00C94FF
:101860001D2F5FDF082F882331F1E4DA86E090E056
:101870000E943D178EE290E00E94891710E0612FD0
:10188000CE01019699DF8823B1F0412FBE016F5F31
:101890007F4FCB0135DB882321F0CE010196DFDAC3
:1018A00008C062E1CE010196CFDF612FCE01019623
:1018B000A3DF1F5FE4CF802F6296E4E00C94392F02
:1018C000CF93DF93FC01EC01C45BDF4FDC01A35B32
:1018D000BF4F98E0908F82E0818F92AB83AB98836B
:1018E0008C93DF91CF910895FC01862F880F8C5F38
:1018F000808F618F82AB63ABDF01A45BBF4F8C93A2
:10190000E35BFF4F608308950F931F93CF93DF93A3
:101910008C01C0E0D0E0C8018C0F9D1F33D0AB011B
:10192000BC016A96CE34D105B1F7CB01BA01DF9183
:10193000CF911F910F910895AB01662757FD6095D8
:10194000762FBA0155274427DFCF0895805C9F4F3B
:10195000FC01608171818281938108950F931F93AF
:10196000CF93DF93EC018B01A1D0B801CE014A9651
:101970009DD0B801CE01C49699D0DF91CF911F912F
:101980000F910895A4E0B0E0E8ECFCE00C940F2F78
:10199000FC0149835A836B837C8384809580A68075
:1019A000B78080869186A286B3864080518062800F
:1019B000738044825582668277824083518362833A
:1019C00073830089118922893389048B158B268BB7
:1019D000378BC484D584E684F784C08AD18AE28AAE
:1019E000F38A418DA08D2A2E312CC701B601601BD0
:1019F000710B820B930B6C0D7D1D8E1D9F1D042E94
:101A000004C0F594E794D794C7940A94D2F76C195C
:101A10007D098E099F096801790104C0F594E79456
:101A2000D794C7944A95D2F76C0D7D1D8E1D9F1DCE
:101A3000C980DA80EB80FC800A2E04C0F594E7941C
:101A4000D794C7940A94D2F76C0D7D1D8E1D9F1DEF
:101A5000A1014150510904C075946794579447946B
:101A60004A95D2F7640D751D861D971D04C0B59467
:101A7000A79497948794AA95D2F7680D791D8A1D2B
:101A80009B1DD101129704C0359527951795079591
:101A9000AA95D2F7601B710B820B930B6487758735
:101AA000868797872496E2E10C942B2FFC01AB01EB
:101AB000662757FD6095762FBA0155274427408346
:101AC000518362837383448355836683778340871E
:101AD0005187628773874487558766877787408BEE
:101AE000518B628B738B448B558B668B778B0895F0
:101AF0000F931F93FC014089518962897389048582
:101B000015852685378504171507260737075CF4E2
:101B100084899589A689B789481759076A077B0779
:101B200014F0CB0102C080E090E81F910F9108955E
:101B30000F931F93FC014089518962897389048541
:101B400015852685378540175107620773075CF4B2
:101B500084899589A689B78984179507A607B70749
:101B600014F0CB0102C080E090E81F910F9108951E
:101B7000A9E0B0E0EEEBFDE00C94142FCB8CDC8CF4
:101B800084E470D1698D83EA90E0CCD26A8D8DE9CE
:101B900090E07AD481E990E09F938F9344D18E01B5
:101BA000035E1F4F0F900F90712C88E9E82E80E0A4
:101BB000F82E96E8A92E90E0B92EF601E70DF11D5A
:101BC0008081882309F456C0863679F178F484360A
:101BD00009F042C0480182E0880E911CF801818121
:101BE0008F9380818F93BF92AF9230C08337A1F0E3
:101BF000843791F54801F2E08F0E911CF801408185
:101C00005181662757FD6095762F0CE021E0CE01CB
:101C100001960E94441C16C04801F2E08F0E911CF0
:101C2000F80181818F9380810EC04801F2E08F0E10
:101C3000911CF801608171812CE043E0CE01019696
:101C40000E94C51B9F938F93FF92EF92ECD00F9051
:101C50000F900F900F9084017394F601E70DF11D22
:101C60008081882309F4A9CF6CE287ED93E00E947C
:101C7000BC24A3CF6DE587ED93E00E94BC240ED178
:101C80002996EDE00C94302FFC0180818093330382
:101C90000E949E208BCD08959C01CB01B9010E942A
:101CA000D71D811183CD08950F931F93CF93DF9399
:101CB000EB01162F13700E946D30FE01FF27EE0F0F
:101CC000FF1FE953FE4F0190F081E02D6083C33088
:101CD00028F0209168033091690304C020916603C5
:101CE00030916703113059F030F0123059F4C901C6
:101CF0000E94931F07C0C9010E948A1F03C0C90127
:101D00000E948E1F53DDDF91CF911F910F91089597
:101D10009C01CB01B9010E941C1E811147CD089581
:101D20009C01CB01B9010E94FF1D81113FCD089597
:101D30009C01CB01B9010E946E1E811137CD08951F
:101D4000A1E0B0E0E6EAFEE00C941D2F8B01BC019F
:101D5000CE0101960E94371E882321F08981F80167
:101D6000808324DD2196E4E00C94392FA6E0B0E0D6
:101D7000ECEBFEE00C94192F7C016B01DF926F936A
:101D8000FF928F9384EC91E09F938F938CE08F93DD
:101D900089E48F93EDDE07E113E00FB6F894DEBF20
:101DA0000FBECDBF46E050E0B801CE0101960E94C3
:101DB000933069817A81C7010E949C30892B39F464
:101DC0006B817C81ED81FE81C601099512C00A5F9D
:101DD0001F4F93E0053C190729F78DE491E09F938D
:101DE0008F931F9287E58F93C3DE0F900F900F9014
:101DF0000F902696E8E00C94352F80911801909171
:101E00001901DC01ED91FC910084F185E02D09952B
:101E1000089526E040E051EE60E070E087ED93E049
:101E20000C94FF230895A0E0B0E0E9E1FFE00C94FA
:101E30001F2FFE013596419151919F0160E870E09E
:101E400088E792E00E94063168E772E087ED93E050
:101E50000E94BA24E2E00C943B2F87ED93E00C94AF
:101E6000C4240895682F87ED93E00E94BC246AE3A0
:101E700087ED93E00E94BC2481E08093F8020895EE
:101E8000F1DF6BE587ED93E00C94BC2408956DE5DC
:101E900087ED93E00E94BC24E0CF08956DE787EDC5
:101EA00093E00E94BC24D9CF0895A6E0B0E0EBE512
:101EB000FFE00C941C2FF42E6D837E83D3DF6D81A5
:101EC0007E81FF20C9F08B010C5F1F4F44E050E082
:101ED000CE0101960E949330EC81F0E0EE0FFF1FDF
:101EE000ED52FE4F0190F081E02D6B8189819A8146
:101EF0000995FA94B801E5CFD1DF2696E5E00C9478
:101F0000382F83E393E0909377028093760248E141
:101F100061EF73E083E4C9CF089582E193E0909389
:101F20007702809376024BE065EC73E086E5BDCFE7
:101F30000895CF93DF93EC018091F802882311F08C
:101F40006BE701C06CE287ED93E00E94BC24109225
:101F5000F80262E287ED93E00E94BC24DF93CF9306
:101F600062DF62E287ED93E00E94BC246AE387EDC2
:101F700093E00E94BC240F900F90DF91CF910895C1
:101F8000CF93DF93EB01D5DF209719F083EB90E03F
:101F900002C08EEA90E0DF93CF939F938F9343DF4D
:101FA0000F900F900F900F90DF91CF910895EF92C7
:101FB000FF920F93CF93DF93CDB7DEB729970FB67C
:101FC000F894DEBF0FBECDBF7C01AB01662757FD85
:101FD0006095762F09E022E0CE0101960E94441C14
:101FE000C701A7DFBE016F5F7F4F87ED93E00E94BF
:101FF000BA2429960FB6F894DEBF0FBECDBFDF918D
:10200000CF910F91FF90EF900895A2E0B0E0EBE048
:10201000F0E10C941F2F69837A838BDF69817A81C9
:1020200087ED93E00E94BA242296E2E00C943B2FC5
:10203000EF92FF920F93CF93DF93CDB7DEB72C973C
:102040000FB6F894DEBF0FBECDBF7C01E0917602E3
:10205000F0917702E60FF11D40815181662757FD0F
:102060006095762F0CE021E0CE0101960E94441C81
:10207000BC01C701CADF2C960FB6F894DEBF0FBEB5
:10208000CDBFDF91CF910F91FF90EF900895ACE01D
:10209000B0E0EDE4F0E10C941D2F8C01E0917602AC
:1020A000F0917702E60FF11D608171812CE043E031
:1020B000CE0101960E94C51BBC01C801A6DF2C966B
:1020C000E4E00C94392FEF92FF920F93CF93DF93BC
:1020D000CDB7DEB72C970FB6F894DEBF0FBECDBFDD
:1020E0007C01E0917602F0917702E60FF11D4081CC
:1020F0005181662757FD6095762F0CE023E0CE01D5
:1021000001960E94691CBC01C7017FDF2C960FB6A7
:10211000F894DEBF0FBECDBFDF91CF910F91FF903E
:10212000EF900895CF93C62F04DF62E287ED93E02E
:102130000E94BC246C2F87ED93E00E94BC2462E2D5
:1021400087ED93E00E94BC24CF9108950F93CF9325
:10215000DF93CDB7DEB72C970FB6F894DEBF0FBE76
:10216000CDBF83E57FDE60912A0382E193E0DADF71
:1021700040912B0350912C03662757FD6095762FD5
:102180000CE022E0CE0101960E94441CBC018AE0D2
:1021900093E03BDF40912D0350912E03662757FDBE
:1021A0006095762F22E0CE0101960E94441CBC016E
:1021B00080E093E02ADF60912F03709130032CE0E0
:1021C00043E0CE0101960E94C51BBC0188EF92E05E
:1021D0001CDF60913103709132032CE043E0CE01AB
:1021E00001960E94C51BBC0180EF92E00EDF56DE17
:1021F0002C960FB6F894DEBF0FBECDBFDF91CF9106
:102200000F910895E0917602F0917702E60FF11DAB
:10221000608188CF0895CF93DF93EB018ADEDF934F
:10222000CF938BEA90E09F938F93FDDD0F900F90FB
:102230000F900F90DF91CF910895E0917602F09189
:102240007702E60FF11D60817181E5CF08950F934C
:102250001F93CF93DF938C01EB0184E503DE6DD6F2
:10226000BC0186EF90E0A3DE7AD6BC018EEE90E052
:102270009EDEB80186EE90E083DE76D6BC018BED63
:1022800090E095DE83D6BC0181ED90E090DEBE014A
:1022900087EC90E075DEB1DD809118019091190115
:1022A000DC01ED91FC910480F581E02D099581110F
:1022B0000CC06091110370E088EB90E0ACDFEEDDC4
:1022C000DF91CF911F910F91089597DDBC018EEBA7
:1022D00090E06DDEEECF60E070E080E090E0B7CFA0
:1022E0000895A0E8B0E0E7E7F1E10C941F2FFE01AC
:1022F000EB57FF4F419151919F0160E870E0CE0193
:1023000001960E94063160E070E0CE0101969FDFE9
:10231000C058DF4FE2E00C943B2FA2E0B0E0E3E9CD
:10232000F1E10C941D2F8C01BC01CE0101960E949D
:10233000D71D882389F180912A03803799F4298158
:102340003A8180912B0390912C03281B390B37FF86
:1023500003C031952195310925363105D4F024E7A4
:1023600031E002C02BE831E02115310591F03F93B7
:102370002F931F930F9385E691E09F938F9389E4AA
:1023800091E09F938F93ADDF0FB6F894DEBF0FBE41
:10239000CDBF89819A81C5D72296E4E00C94392F6C
:1023A000A0E8B0E0E6EDF1E10C941F2FFE01EB5741
:1023B000FF4F419151919F0160E870E0CE0101967D
:1023C0000E940631BE016F5F7F4F80E090E03FDFEB
:1023D000C058DF4FE2E00C943B2FCF93DF93EC012A
:1023E00060E088815DD58BE891E09F938F93DF93C8
:1023F000CF938FE691E09F938F9389E491E09F9331
:102400008F93CEDF8DB79EB708960FB6F8949EBF18
:102410000FBE8DBFDF91CF910895A2E0B0E0E3E160
:10242000F2E10C941D2F8C01BC01CE0101960E949B
:10243000D71D8823D9F080912A038636A1F48BE832
:1024400091E09F938F931F930F9389E591E09F9362
:102450008F9389E491E09F938F93A2DF0FB6F89456
:10246000DEBF0FBECDBF89819A818AD72296E4E074
:102470000C94392FE0917602F0917702E60FF11D6E
:10248000608170E0C8CE089570E0C5CE0895CF9306
:10249000DF93C0E1D7E287ED93E00E94AA22892B67
:1024A00051F484E690E00E9456252197209799F7F1
:1024B0008FEF9FEF04C087ED93E00E94C322DF916E
:1024C000CF9108951F93CF93DF93EC01188210E012
:1024D000DEDF9C011D31B9F08D379105A1F02F3F52
:1024E0008FEF380781F02C32310579F02A3331052E
:1024F00061F0C9018D7F809759F3FE01E10FF11D55
:1025000020831F5FE5CF80E001C081E0C10FD11DB6
:102510001882DF91CF911F910895ACE3B0E0E3E919
:10252000F2E10C941A2F8C017B011F8E1982AFDF10
:102530008B379105C1F09F938F938FE391E09F9329
:102540008F938AE08F9385E48F9312DB0F900F9027
:102550000F900F900F900F901CC0D12C898181118A
:102560000CC0DD20B1F0CE014F96ACDF8823A9F37B
:10257000CE010196A7DFD82EF1CF8F8D882389F366
:10258000A701BE016F5F7F4FCE014F96F8010995FD
:10259000E8CFEC96E7E00C94362F60E070E086EB35
:1025A0009EE0BBDFD3DDADCC0895A5E1B0E0EBED5F
:1025B000F2E10C940F2F2FE3422E21E0522E332410
:1025C0003394CE0101967C013FEFC32E30E0D32E31
:1025D00041E4A42E41E0B42E5AE3852E51E0952E1D
:1025E00064E0662E61E0762E0DE411E087ED93E065
:1025F0000E94AA22181619060CF0F2C087ED93E08B
:102600000E94C32299278535910509F4CDC0C4F5F0
:102610008334910509F484C094F48D30910531F32D
:1026200024F48A30910511F3CCC080329105F1F287
:102630008134910509F0C5C030925802D7CF863455
:10264000910509F4BBC074F48534910509F0B9C053
:1026500072D81F930F938FE08F9389E48F9388DA5A
:1026600023D169C08235910509F4A5C08335910550
:1026700009F0A7C034D46ADD1F930F938EE057C0D2
:102680008A36910509F487C0DCF48336910509F494
:1026900059C03CF48136910509F093C0109258025C
:1026A000A5CF8436910509F478C08836910509F0E4
:1026B00088C088E6E5DB87ED93E00E94810A79C057
:1026C0008337910509F43CC004F58C36910509F473
:1026D0003BC08E36910509F074C01F923F921F9245
:1026E00093E79F931F921F921F9282E08F93BF9256
:1026F000AF929F928F927F926F9295DBAEDB0FB677
:10270000F894DEBF0FBECDBF71CF8437910531F095
:102710008637910509F055C000DC68CFDCDD66CF57
:10272000B5D30E949E20EDDB1F930F938DE08F9316
:1027300089E48F931DDA0F900F900F900F9056CF72
:1027400005DD54CFDEDB52CF8CE48CDB6BE587ED0F
:1027500093E00E94BC24212CA701622D8AE693E01D
:102760000E947D2AFF92EF92DF92CF925CDB0F9066
:102770000F900F900F9093E0291611F06CE201C0BA
:102780006DE587ED93E00E94BC24239484E0281239
:10279000E3CF63DB2BCF01DF29CF84E671DB87ED4D
:1027A00093E00E94440B05C087ED93E00E949E08D1
:1027B0001DCF6DDB1BCF0E94112718CF0E9414275D
:1027C00015CF9F938F935F924F923F9297E59F9380
:1027D000CFD90F900F900F900F900F900F9006CFC2
:1027E0006596E2E10C942B2F660F682B90915703AE
:1027F000E62FF0E08091FB028F70992341F094E086
:10280000899FE00DF11D1124E359FB4F07C094E0AF
:10281000899FE00DF11D1124EF5AFB4FE491E093E5
:10282000FB028091FB02807321F12091FD02309127
:10283000FE02803119F42F5F3F4F02C02150310951
:1028400080910103909102034091FF025091000397
:102850008217930714F4CA0104C0241735070CF03B
:10286000C9019093FE028093FD028AE693E00C94E6
:10287000D52A089581E08093FC028AE693E00C94C7
:10288000D52A08950E94612A2091F9023091FA0216
:102890008217930731F09093FA028093F90281E056
:1028A00008958091FC0208950E942B0C811111C0A3
:1028B00016D3ECD20E941A078DE491E09F938F9378
:1028C00083E08F9387E58F9353D90F900F900F90EC
:1028D0000F900895009741F0DC01ED91FC91048088
:1028E000F581E02D0995089580E00895681779072E
:1028F00068F4861B970B2091040330910503281779
:10290000390720F4909305038093040308951092EF
:10291000100310920F030895CF93DF93EC010E94F0
:10292000E91E88819981D6DF811103C0CE010E9402
:102930009B1EDF91CF910895809168039091690368
:10294000EBDF8091660390916703E6DF80911801C9
:1029500090911901DC01ED91FC910084F185E02D4D
:1029600009958115904859F48091180190911901A9
:10297000DC01ED91FC910680F781E02D0995089529
:10298000CF93DF93109211038FE680932A0360E0C8
:102990008AE593E00E94AC1F8091680390916903DF
:1029A000892B21F582EF90E00E94D624EC0102965B
:1029B0000E94600CCE01805B9F4F0E94600CCE0194
:1029C00082569F4F0E94600CFE01E451FF4F2FEF93
:1029D00020838EE692E09983888335962083D09376
:1029E0006903C0936803CE010E949B1E8091660319
:1029F00090916703892B21F582EF90E00E94D62405
:102A0000EC0102960E94600CCE01805B9F4F0E94F9
:102A1000600CCE0182569F4F0E94600CFE01E45173
:102A2000FF4F2FEF20838EE692E0998388833596BF
:102A30002083D0936703C0936603CE010E949B1E40
:102A40007BDF65DF109209031092080310920703E1
:102A500010920603DF91CF910895A0E0B0E0E3E388
:102A6000F5E10C94192F80912A03823661F08037AA
:102A700051F0863609F04BC181E090E890932C0329
:102A800080932B0344C120912B0330912C03C90167
:102A90009058029718F481E090E835C1809168035E
:102AA00090916903FC01EC57FF4F4485558566857D
:102AB0007785261B370B30931303209312030E9454
:102AC0007B1F909319038093180380916603909164
:102AD00067030E94751FDC0180910303209112039C
:102AE000309113038C3321F08F5F8093030389C0EF
:102AF00010920303C901E091110340911403509116
:102B000015036091160370911703E11168C0F90174
:102B100037FF04C0EE27FF27E21BF30BC0913E03F3
:102B2000D0913F03EC17FD070CF047C0DD24D39490
:102B3000121613060CF0D12CE1E014161506160639
:102B400017060CF0E0E0DE1234C0E0912D03F091A6
:102B50002E03C0913603D0913703EC17FD0714F014
:102B600080E090E0C0913403D0913503CE17DF07A9
:102B700014F080E090E000912B0310912C03C091A1
:102B80005803D09159037F01E01AF10AEC16FD06B3
:102B900014F080E090E00E1B1F0B0C171D0714F0C3
:102BA00080E090E0D11017C0FC5FEA17FB07CCF47F
:102BB00016C0C901880F991F14C06A017B0183E008
:102BC000F594E794D794C7948A95D1F788279927E5
:102BD0008C199D0906C0F450AE17BF0714F480E0AD
:102BE00090E0AA2797FDA095BA2F840F951FA61FE6
:102BF000B71F8093140390931503A0931603B0930B
:102C00001703B9018091380390913903F9D6909355
:102C10001B0380931A034091140350911503609194
:102C200016037091170380913A0390913B03DAD613
:102C300090931D0380931C036091180370911903F6
:102C400080913C0390913D03DBD690931F038093CA
:102C50001E0320912B0330912C036901EE24D7FC35
:102C6000E094FE2C40911A0350911B03662757FDF8
:102C70006095762FC40ED51EE61EF71E40911C03EC
:102C800050911D03662757FD6095762FC40ED51E03
:102C9000E61EF71EAA2797FDA095BA2FC80ED91ECB
:102CA000EA1EFB1E009134031091350380915803F6
:102CB00090915903A801480F591F421753071CF45C
:102CC0008901081B190BC0913603D0913703AE015F
:102CD000481B590B241735071CF4E901C80FD91FED
:102CE000C701B60133D68017910754F0C701B6016A
:102CF0002DD6C817D90734F0C701B60127D603C0AF
:102D0000C80101C0CE0190932E0380932D03CDB74F
:102D1000DEB7E8E00C94352FCF93DF93EC0177FF1B
:102D200003C0719561957109F5E075956795FA9500
:102D3000E1F7882777FD8095982F2AE930E040E079
:102D400050E035D6688179818A599D4F59D68931AD
:102D5000910514F489E190E0998388830E94D10B56
:102D6000DF91CF910895CF93DF93EC0177FF03C0FC
:102D7000719561957109A5E075956795AA95E1F73B
:102D8000882777FD8095982F25E530E040E050E0DA
:102D90000ED6688179812AEA31E0A901481B590BD6
:102DA000CA012ED6998388830E94D10BDF91CF91DF
:102DB000089560910603709107038AE592E00C94F0
:102DC0006E2E089560910803709109038AE592E0E0
:102DD0000C946E2E089560910A0370910B038AE59E
:102DE00092E00C946E2E089547E250E0BC0183E31C
:102DF00093E00C940A33089549E050E0BC018AE264
:102E000093E00E940A3380912B0390912C039093BE
:102E10000D0380930C030895609150038091660325
:102E2000909167030E948A1F60915103809166030D
:102E3000909167030E948E1F6091520380916603F8
:102E4000909167030E94931F6091530380916803E0
:102E5000909169030E948A1F6091540380916803D6
:102E6000909169030E948E1F6091550380916803C1
:102E7000909169030C94931F089547E250E0BC01C0
:102E800083E393E00E94F232C7CF089547E250E017
:102E900066EA74E083E393E00E949330BDCF089527
:102EA00090912A03891305C0909111039550933096
:102EB00018F41092110302C0662381F080932A0354
:102EC0008F3651F481E090E890932C0380932B038C
:102ED00090932E0380932D030C94D10B089560E002
:102EE0008FE6DEDF81E090E890932C0380932B0344
:102EF00090932E0380932D0386E690E09093300309
:102F000080932F0380E09AE0909332038093310303
:102F1000089549E050E0BC018AE293E00E94F23259
:102F200080912B0390912C0390930D0380930C03BD
:102F300061E080912A03B4CF0895E0916803F09195
:102F4000690380819181C6DC882331F08091680318
:102F500090916903CAC7089580E090E80895809130
:102F60002B0390912C030895E0916603F091670381
:102F700080819181AFDC882331F08091660390914C
:102F80006703B3C7089580E090E8089580912D030A
:102F900090912E0308959091110381E0943021F0D7
:102FA000983011F080E008950895A4E0B0E0EBEDD2
:102FB000F7E10C941D2F4817590708F4CA019C012A
:102FC000DB010E94F92E20E13EE040E050E00E944B
:102FD000C22E890129833A834B835C83DCDF2981FC
:102FE0003A81882321F000271127021B130B8091BF
:102FF00066039091670379D7800F911F9093210307
:10300000809320032496E4E00C94392FA0E0B0E0F4
:10301000ECE0F8E10C94162F80910E0190910F01D5
:10302000DC01ED91FC910190F081E02D09959091EA
:103030000E038917A1F080930E03882319F08FE9FE
:1030400094E002C088E994E09F938F9389E894E02C
:103050009F938F93A5D90F900F900F900F90809111
:103060002A038F3631F481E08093110399249394DD
:1030700001C0912C80912D0390912E0390580297BE
:1030800008F445C1E0916603F09167038081918166
:1030900021DC882309F43BC1E0916803F0916903C6
:1030A0008081918117DC811108C080912A038236CA
:1030B00009F42DC1803709F42AC18DDEEC0179DED7
:1030C0007C0180DE6C0180916603909167030DD7CF
:1030D0005C01809168039091690307D78C018AE5B0
:1030E00092E00E947E2E4091110350E04A3051053B
:1030F00008F012C1FA01EC5CFF4F0C94DE2E9093A5
:103100000B0380930A03911007C1109205031092DC
:10311000040320912D0330912E0380914003909160
:103120004103820F931F8A159B055CF5B60188E564
:1031300092E0DCDB80912A03863621F4B70188E532
:1031400092E00CC080912B0390912C030F96801776
:1031500091070CF0D5C0B7018CE291E0C7DB8091FC
:103160001401909115018057924009F447C0809155
:10317000040390910503892B11F085E03AC084E0A7
:1031800038C08091420390914303820F931FA81689
:10319000B9060CF0B5C0B70188E592E0A7DBB6012F
:1031A0008CE291E0A3DB80912A03863649F080917E
:1031B0002B0390912C030F97081719070CF0A0C050
:1031C00080911601909117018057924059F4809197
:1031D0005603882399F08091120190911301805732
:1031E000924061F08091040390910503892B21F0B6
:1031F00086E08093110302C083E0FBCF809111032E
:103200008350823008F088C080910F03882321F01A
:10321000B70188E097E008C080911003882309F483
:103220007BC0B60184E893E061DB87E06DC021E0FC
:1032300020930F039093070380930603609131035B
:1032400070913203AE0180914E0390914F03ADDE39
:1032500084E0809311032091200330912103809119
:103260002D0390912E038217930774F480912A0303
:10327000863609F451C080912B0390912C0340971E
:10328000081719070CF048C0C53BD10528F030934A
:1032900023032093220334C088E036C021E020932A
:1032A0001003909309038093080360912F0370919A
:1032B0003003AE0180914C0390914D0376DE83E0A4
:1032C00080931103209120033091210380912D03DD
:1032D00090912E032817390764F480912A038636CB
:1032E000D9F080912B0390912C0340968017910781
:1032F0009CF4C53BD10538F030932503209324037B
:103300001092110309C089E08093110305C0109247
:10331000110399249394D1CECDB7DEB7EBE00C9492
:10332000322FCF93DF93EC0120912B0330912C03AC
:1033300090932C0380932B03281B390B37FF03C07A
:10334000319521953109213031400CF0E0DA85DBEF
:103350005DDE80912A03803771F420910C03309157
:103360000D032C1B3D0B37FF03C03195219531090F
:103370002138310514F00E94D10BDF91CF910895CF
:1033800090932E0380932D03C2DA67DB3FDE0C940B
:10339000D10B08959091110381E0933021F0993081
:1033A00011F080E008950895CF93DF9380912A0370
:1033B000843709F449C08AE593E0E9D5EBDFC82FEB
:1033C000EADDD82F8091140190911501DC01ED9177
:1033D000FC910190F081E02D6D2F099580911601EF
:1033E00090911701DC01ED91FC910190F081E02DAD
:1033F0006C2F0995A0911201B0911301ED91FC91F0
:1034000011970190F081E02D80910E03811109C088
:1034100080915603882311F0C11103C060916503A8
:1034200001C061E0CD0109958091100190911101D9
:10343000DC01ED91FC910190F081E02DCC2311F0A5
:1034400061E001C06D2F0995DF91CF910895A0E053
:10345000B0E0EDE2FAE10C94192F8091100388237B
:1034600019F098DF882349F080910F03882309F42D
:10347000D8C091DD8111D5C05EC080916603909166
:1034800067033ED5EC0100912403109125037C01D4
:10349000E01AF10AC0902F03D0903003C11580E8E4
:1034A000D807B9F080914403909145038E159F058C
:1034B00024F4B7018FE293E02FDC809146039091D2
:1034C0004703E816F9065CF5B7018FE293E04BDCA1
:1034D00026C078DC8538934008F4A3C08091660349
:1034E0009091670302D520912403309125034091E8
:1034F000460350914703240F351F8217930764F446
:103500008091660390916703F0D4EC01B7018FE2DC
:1035100093E029DC23E104C01092100382C021E172
:1035200080912F0390913003D0932903C0932803F7
:10353000109210035DC08091660390916703E5D4FB
:10354000EC0100912203109123037C01E01AF10A9F
:10355000C0903103D0903203C11590E8D907B9F07B
:1035600080914A0390914B03E816F90624F4B701C1
:1035700081E393E0D1DB80914803909149038E155C
:103580009F055CF5B70181E393E0EDDB26C011DC1C
:103590008930974008F445C0809166039091670395
:1035A000A4D42091220330912303409148035091E9
:1035B0004903240F351F2817390764F480916603E7
:1035C0009091670392D4EC01B70181E393E0CBDBE8
:1035D00024E104C010920F0324C022E18091310342
:1035E00090913203D0932703C093260310920F03C8
:1035F0009F938F93DF92CF921F930F93DF93CF937D
:103600008FED91E09F938F932F9389E48F930E9486
:10361000B80D8DB79EB70C960FB6F8949EBF0FBE2F
:103620008DBFCDB7DEB7E8E00C94352FE3E6F3E0CD
:103630008AE291E0918380831092650388EE91E0A5
:1036400090935B0380935A0388E592E090935F0325
:1036500080935E03F0936103E093600308958EE12D
:1036600091E090935B0380935A039093640380935B
:1036700063030895A0E0B0E0E0E4FBE10C941F2FA9
:103680009E01255F3F4F49855A856F8178858D81E1
:103690009E810E940631E2E00C943B2F8F929F9214
:1036A000AF92BF92DF92EF92FF920F931F93CF934F
:1036B000DF93EC01D02E77FD03C080E2888309C040
:1036C0008DE2888370956095509541955F4F6F4F5F
:1036D0007F4F4A015B0139E0B594A7949794879492
:1036E0003A95D1F77401213039F0223051F008EECB
:1036F00013E0EDEDF4E009C00AE010E0EDEEF4E0D7
:1037000004C004E610E0E5EEF4E09A01AB0131708C
:1037100044275527D8010E94FF2E7F5F8F4F9F4F70
:1037200029E095958795779567952A95D1F7601744
:10373000710730F074018FEFE81AF80A60E070E06A
:103740007F936F93FF92EF92FF93EF938D2D90E015
:1037500001979F938F93CE0101969F938F938ADF5A
:103760008DB79EB70A960FB6F8949EBF0FBE8DBF59
:10377000CE01DF91CF911F910F91FF90EF90DF90DD
:10378000BF90AF909F908F9008950F93342FAB010F
:10379000662757FD6095762F022F232F7FDF0F912D
:1037A0000895FB012081322F3F7D11F02E3239F434
:1037B00021E08617970709F020E0822F089581E025
:1037C00008950F931F93CF93C42F20913303263472
:1037D00009F5442319F070548109910997FF02C03B
:1037E00003ED01C00DE2A2E3B0E09B01AC010E9439
:1037F000FF2E112707FD1095212F312F600F711F0C
:10380000821F931F2AE530E040E050E00E94C22E64
:10381000CA01B901CC2319F0705681099109CF91E1
:103820001F910F9108950F931F9320913303263416
:1038300019F5442321F062577C478F4F9F4F97FF24
:1038400002C007EE01C009E1AAE5B0E09B01AC01AE
:103850000E94FF2E112707FD1095212F312F600F99
:10386000711F821F931F22E330E040E050E00E946E
:10387000C22ECA01B90105C0442319F0705A8F4FF6
:103880009F4F1F910F910895EF92FF920F93CF9347
:10389000DF931F92CDB7DEB77C01CB01BA01505840
:1038A0004230510538F465EF74E0C7010E94A5303D
:1038B000C70108C041E02983B6DFAB01BC01298103
:1038C000C701ECDE0F90DF91CF910F91FF90EF9049
:1038D0000895EF92FF920F93CF93DF931F92CDB78E
:1038E000DEB77C01CB01BA0140E029839CDFAB014C
:1038F000BC012981C701D2DE0F90DF91CF910F91DA
:10390000FF90EF9008950F931F9341E08CDF9B0190
:10391000AC0197FF03C000E01FEF02C000E011E020
:10392000AAE0B0E00E94FF2E222717FD2095322F3B
:10393000600F711F821F931F20E032E040E050E0D3
:103940000E94C22EC9011F910F910895623020E894
:1039500072072FEF8207920744F0611520E8720783
:10396000810591052CF4CB01089582E090E808953B
:103970008FEF9FE70895BC01882777FD8095982FEA
:1039800049E0660F771F881F991F4A95D1F76B5F33
:103990007F4F8F4F9F4F2AE030E040E050E00E9481
:1039A000C22ECA01B90141E00CDFD0CF0895A0E0DA
:1039B000B0E0EDEDFCE10C94192F6B017C01EA0104
:1039C0008901C4DF8C179D072CF00817190724F014
:1039D000C60103C0CE0101C0C801CDB7DEB7E8E023
:1039E0000C94352FDC019A01AB010E94092FE9E00C
:1039F0009595879577956795EA95D1F7A7CF08951F
:103A00009C01DB010E94E42EA9E0959587957795AE
:103A10006795AA95D1F79ACF0895A0E0B0E0E3E1C9
:103A2000FDE10C94192F8C01FB0191838083C0E090
:103A3000D0E0DD24D39420E030E0A901E080F180E3
:103A4000D701CC90CC2039F1B0E2CB1203C0209743
:103A5000E1F025C08DE2C816B9F080ED8C0D8A30FA
:103A6000D0F4AAE0B0E00E94FF2E9B01AC018C2DA7
:103A700090E0C097AA2797FDA095BA2F280F391F6D
:103A80004A1F5B1F219601C0D12CAFEFEA1AFA0A38
:103A9000F182E082D3CFCD2B11F411830083D110BA
:103AA00008C066277727CB01621B730B840B950B2D
:103AB00002C0CA01B901CDB7DEB7E8E00C94352FDA
:103AC000A2E0B0E0E6E6FDE10C940F2F6C018B0163
:103AD0006DE270E0C8010E94B5301C01BE016F5F4D
:103AE0007F4FC8019ADF2B013C0169817A81C801AF
:103AF00058DE882311F080E056C06EE270E0C80105
:103B00000E94B530009789F18C010F5F1F4FBE01F5
:103B10006F5F7F4FC80181DF4B015C01E980FA8054
:103B2000B701C8013EDE8111E6CFA501940119E07D
:103B3000220F331F441F551F1A95D1F7E01A00E0DA
:103B400010E08AE0882E912CA12CB12CE01681F097
:103B5000CA01B9016B5F7F4F8F4F9F4FA501940141
:103B60000E94C22E0F5F1F4FF1CF20E030E0A9016D
:103B7000B9E0440C551C661C771CBA95D1F7D301EB
:103B8000C2012114310429F4820F931FA41FB51F11
:103B900004C0821B930BA40BB50BF60180839183A9
:103BA000A283B38381E02296E2E10C942B2FA4E060
:103BB000B0E0EDEDFDE10C941B2F8C017B0188ED55
:103BC00094E00E94C030892B19F481E090E80DC088
:103BD000B701CE01019674DF882361F069817A8193
:103BE0008B819C8141E0EDDDB1DEF8019183808322
:103BF00081E001C080E02496E6E00C94372FA4E039
:103C0000B0E0E5E0FEE10C941D2F8C01CE010196A1
:103C100057DF882361F069817A818B819C8140E044
:103C2000D0DD94DEF8019183808381E001C080E0E3
:103C30002496E4E00C94392FA4E0B0E0E2E2FEE147
:103C40000C941D2F8C01CE0101963ADF882351F090
:103C500069817A818B819C8179DEF80191838083EF
:103C600081E001C080E02496E4E00C94392FA2E0CA
:103C7000B0E0EDE3FEE10C94172F5C018B0183EDC6
:103C800094E00E94C030892B21F481E0F50180830B
:103C900021C0B8018DEC94E00E94C030892B19F44A
:103CA000F501108214C0BE016F5F7F4FC801B5DE01
:103CB0006B017C0169817A81C80173DD811109C0C2
:103CC000F1E0FC1530F08C2D8170F501808381E0EE
:103CD00001C080E02296EAE00C94332FA2E0B0E02D
:103CE000E4E7FEE10C94172F8C015B01BE016F5FCE
:103CF0007F4FC50192DE6B017C0169817A81C5012C
:103D000050DD811113C0C114D10481E0E806F10433
:103D100034F08FEF9FEFF8019183808305C0F7FCAB
:103D200005C0F801D182C08281E001C080E0229606
:103D3000EAE00C94332FA0E0B0E0E1EAFEE10C945D
:103D4000192FEC01888199810097F1F1DC01ED9147
:103D5000FC910680F781E02D09958823A9F17E0169
:103D6000B1EFEB0EF11CF70180818D3368F1888192
:103D70009981DC01ED91FC910084F185E02D09959C
:103D80008C018115B0E89B07F9F0B801CE010296CD
:103D90000E94AE0C6E01F0E5CF0ED11CB801C60139
:103DA0000E94AE0C60E070E0CE0182569F4F0E94F0
:103DB000AE0CC6010E94A60CC351DF4F6883798305
:103DC0008A839B83D7011C92CDB7DEB7E8E00C94C1
:103DD000352F8F929F92AF92BF92EF92FF920F93E7
:103DE0001F93CF93DF93EC0188819981009709F4A9
:103DF0006AC0DC01ED91FC910084F185E02D09950C
:103E00008C018115B0E89B0709F45DC0BC01CE01AF
:103E100002960E949C0C7E01F0E5EF0EF11CB801A9
:103E2000C7010E949C0C8E0104511F4FD8018C9138
:103E300081508C93843051F4C7010E94A60CFE017E
:103E4000E351FF4F6083718382839383F801808104
:103E5000811140C0C7010E94A60C4B015C017E018C
:103E6000FDEEEF0EF11CF70180819181A281B381FB
:103E7000A5019401281B390B4A0B5B0B4C315105F2
:103E80004CF4453EFFEF5F074CF420E030E045EE98
:103E90005FEF04C020E030E04BE150E0A0EBB4E085
:103EA0000E94FF2EAB01BC01CE0182569F4F0E94A3
:103EB000840CD7018D929D92AD92BC92139783E0B2
:103EC000F801808307C0CF50DF4F88818F3F11F00A
:103ED0008F5F8883DF91CF911F910F91FF90EF90BB
:103EE000BF90AF909F908F9008958E5B9F4FFC0185
:103EF00082819381089582569F4F0C94A60C089559
:103F00008C579F4F0C94780D08958C579F4F0C94AD
:103F1000980D089502960C94740C0895805B9F4F41
:103F20000C94740C089582569F4F0C94740C089551
:103F3000FC01808191810895FC01808508952EE126
:103F400031E0FC013183208308952EE131E0FC0152
:103F5000318320832EC508951F93CF93DF93EC0107
:103F6000162F68878E819F81DC01ED91FC91019075
:103F7000F081E02D0995112331F08AE592E00E944D
:103F80007E2E9B838A83DF91CF911F910895CF93DB
:103F9000DF93EC016A817B818AE592E00E946E2EBC
:103FA0002C813D818217930740F0E881F9810190CF
:103FB000F081E02D60E0CE010995DF91CF91089569
:103FC000A5E1B0E0E6EEFFE10C941D2F8C01CE01DF
:103FD00001960E94A530BE016F5F7F4FC801CAD411
:103FE0006596E4E00C94392F8FEF8093CD0382E047
:103FF0008093CC038AE693E00E94B02A44E064E117
:104000008AE693E00E94AD2B8AE693E00C94332B72
:104010000895A9E0B0E0EFE0F0E20C941D2FAC01B0
:104020009058029730F46BE775E08AE693E0C8DFBA
:104030001FC0662757FD6095762F09E021E0CE016D
:10404000019622DCCE0101960E94C93015E0181BB2
:1040500000E001173CF460E28AE693E00E94932BB3
:104060000F5FF7CFBE016F5F7F4F8AE693E082D488
:104070002996E4E00C94392FCF93DF93EA01462F81
:10408000682F8AE693E00E945D2BCE01C2DFDF91AC
:10409000CF9108950E949D17AC0161E086E0ECCFBE
:1040A00008950E94AF17AC0161E08CE0E5CF089560
:1040B0008091CC0380FF0CC0809118019091190170
:1040C000DC01ED91FC910084F185E02D099502C0A1
:1040D0000E94B417AC0162E086E0CECF08950E9442
:1040E000C6172091CC0320FF02C081E090E8AC010C
:1040F00062E08CE0C1CF0895462F682F8AE693E0F6
:104100000E945D2B6FED8AE693E00E94932B6091F5
:1041100033038AE693E00C94932B0895CF93DF93B7
:10412000EA01462F682F8AE693E00E945D2BBE01CC
:104130008AE693E045DFDF91CF91089546E755E0A9
:1041400060E080E0EBDF47EB55E061E080E0E6DF38
:104150008091CC0380FF03C04FE655E002C04FEAD8
:1041600055E062E080E0DADF61E082E1C5DF62E035
:1041700082E1C2CF08958091CC0381FF21C08AE5FE
:1041800092E00E947E2E83FD0CC0809118019091D8
:104190001901DC01ED91FC910480F581E02D099578
:1041A00001C080E09091CC03292F2170821741F04B
:1041B000882311F0916001C09E7F9093CC03BEDFF5
:1041C00069DF6FDF75DF8BCF08958093CC03B6DF97
:1041D000D2CF0895CF93DF93EA01462F682F8AE666
:1041E00093E00E945D2BBE018AE693E0C3D3DF918A
:1041F000CF91089540E067E08AE693E00E945D2B4E
:1042000080912A038F36F9F038F4823661F08636D1
:10421000E9F46FEA75E009C0803769F08437B1F4DA
:1042200065E575E015C067EB75E08AE693E0C8DEEA
:1042300068EA75E00DC067EB75E08AE693E0C0DEE2
:1042400067E675E005C063E675E002C068E475E006
:104250008AE693E0B5DE8AE693E00C94DE2B0895BF
:10426000ABE0B0E0E6E3F1E20C941B2F80910E038B
:10427000811103C02091110301C022E08091CD0380
:10428000281721F12093CD032A3078F4822F90E073
:10429000880F991FFC01EC5FFD4F40815181FC01AB
:1042A000E051FE4F0081118104C001E815E047E0B4
:1042B00055E063E080E02B8731DFB8018AE693E0C8
:1042C0007FDE8AE693E00E94DE2B2B852B870E94FF
:1042D000EB162B8521110EC00E94D9168C010E946D
:1042E000E2160817190718F40E94D91619C00E947F
:1042F000E21616C03DEF320F323090F0283011F048
:10430000293039F424EB30E0A901481B590BCA01CC
:1043100007C025502230B8F5809104039091050321
:104320008F3F5FEF950779F1ECE3F0E0BF010E946A
:104330008C2E9C01CB01BF010E948C2E7B013F93F0
:104340002F939F938F93FF926F938AEF94E09F93A5
:104350008F938E010F5F1F4F1F930F930E94E730C3
:104360000FB6F894DEBF0FBECDBFE114F10429F4FF
:104370000297AE014D5F5F4F01C0A80163E094E179
:10438000981B892F27DF2B96E6E00C94372F10928D
:104390006D0310926C0381E492E090936B03809321
:1043A0006A03089581E492E090936B0380936A031B
:1043B0000895FF920F931F93CF93DF938B01EC012E
:1043C0002B9640E065E5CE0183D788E0F82EF80112
:1043D00061918F0140E0CE017BD7FA94C1F7CDB750
:1043E000DEB7E5E00C94382FFC01108612861186AA
:1043F00027E030E0DF01A20FB31F1C922115310529
:1044000019F021503109F6CF0895A3E0B0E0EBE0B8
:10441000F2E20C94142F8C016B01FC018285811156
:1044200067C07801FBE0EF0EF11CC701CAD681110D
:1044300005C0F80110861286118671C040E060EF59
:10444000C70146D7AA24A394912C812CBB24B394F2
:1044500077247394F8018085B81638F4E90DF11DBE
:1044600080818A2121F0798203C0B816E1F3198294
:104470009E012E5F3F4FAE014D5F5F4FBE016F5FEC
:104480007F4FC70159D79B818A81992319F08823CF
:1044900061F024C0811109C08981811106C0F8E052
:1044A000FB1510F0F801B1868B2C8981A92DB0E0A5
:1044B000A00FB11F813019F48C918A2904C08C910E
:1044C0009A2D909589238C93B394AA0C19F4939404
:1044D000AA24A394F7E0F91508F0BCCF80E48B156B
:1044E00038F4F8018086811014C081E0828711C001
:1044F000F80110861286118680E0D801F60120E0CE
:1045000030E09D9191932F5F3F4F28303105C9F7DF
:1045100006C0F8018081882359F381E0EECF23960D
:10452000EDE00C94302FFC0180E05CE8615088F0F5
:10453000419198E0742F7827282F30E03595279502
:10454000822F70FF02C0852F82274695915091F7E8
:10455000EDCF0895FC01818D228D90E0805C9F4F0E
:10456000821B91098F7399270895FC01918D828D8B
:10457000981731F0828DE80FF11D858D90E0089538
:104580008FEF9FEF0895FC01918D828D981761F058
:10459000828DDF01A80FB11D5D968C91928D9F5F7A
:1045A0009F73928F90E008958FEF9FEF089587EDAE
:1045B00093E0D0DF21E0892B09F420E0822F0895D9
:1045C000A0E0B0E0E6EEF2E20C94192F6C017A0163
:1045D000EB01E60EF71E00E010E0CE15DF0561F0FE
:1045E0006991D601ED91FC910190F081E02DC60119
:1045F0000995080F191FF1CFC801CDB7DEB7E8E064
:104600000C94352F833081F028F4813099F082307A
:10461000A1F008958730A9F08830B9F08430D1F442
:10462000809180008F7D03C0809180008F77809380
:104630008000089584B58F7702C084B58F7D84BDD6
:1046400008958091B0008F7703C08091B0008F7D76
:104650008093B0000895A2E0B0E0E1E3F3E20C94AF
:104660001D2F8C016115710589F0CB0169837A8357
:104670000E94C930D801ED91FC910280F381E02DB8
:10468000AC0169817A81C801099502C080E090E09F
:104690002296E4E00C94392F87ED92E2892B41F0C9
:1046A00080E090E0892B21F082DF81110E940000E0
:1046B0000895FC01848DDF01A80FB11DA35ABF4FDF
:1046C0002C91848D90E001968F739927848FA68911
:1046D000B7892C93A089B1898C9180648C93938D38
:1046E000848D981306C00288F389E02D80818F7D28
:1046F00080830895CF93DF93EC01888D8823C1F0E8
:10470000EA89FB89808185FD05C0A889B9898C91DA
:1047100086FD0EC00FB607FCF5CF808185FFF2CF76
:10472000A889B9898C9185FFEDCFCE01C2DFE8CF92
:10473000DF91CF910895CF92DF92FF920F931F9355
:10474000CF93DF931F92CDB7DEB76C01DC015B9690
:104750009C915B975C968C915C97981307C05096E0
:10476000ED91FC915197808185FD31C0F601038D5B
:1047700010E00F5F1F4F0F731127F02EF601848D8D
:10478000F81210C00FB607FCF9CFD6015096ED9184
:10479000FC915197808185FFF1CFC601698389DF44
:1047A0006981ECCF838DE80FF11DE35AFF4F6083E1
:1047B000D6015B960C935B975296ED91FC915397C3
:1047C00080818062808381E058968C930DC0D601F1
:1047D0005696ED91FC91579760835096ED91FC9120
:1047E000519780818064808381E090E00F90DF9119
:1047F000CF911F910F91FF90DF90CF900895BF92BE
:10480000CF92DF92EF92FF92CF93DF93EC016A0198
:104810007B01B22EE889F98982E08083411581EE1F
:10482000580761057105A1F060E079E08DE390E043
:10483000A70196010E94A02E21503109410951097A
:104840005695479537952795211580E1380798F0BB
:10485000E889F989108260E874E88EE190E0A701A8
:1048600096010E94A02E2150310941095109569507
:10487000479537952795EC85FD85832F992780836C
:10488000EE85FF852083188EEC89FD89B082EA8948
:10489000FB89808180618083EA89FB8980818860CF
:1048A0008083EA89FB89808180688083EA89FB892B
:1048B00080818F7D8083DF91CF91FF90EF90DF909B
:1048C000CF90BF9008951F920F920FB60F921124B0
:1048D0002F938F939F93EF93FF93E091E703F091D2
:1048E000E8038081E091ED03F091EE0382FD12C0B8
:1048F00090818091F0038F5F8F732091F103821775
:1049000051F0E091F003F0E0E952FC4F958F809375
:10491000F00301C08081FF91EF919F918F912F91C2
:104920000F900FBE0F901F9018951F920F920FB609
:104930000F9211242F933F934F935F936F937F9325
:104940008F939F93AF93BF93EF93FF9387ED93E084
:10495000B0DEFF91EF91BF91AF919F918F917F91C9
:104960006F915F914F913F912F910F900FBE0F90DC
:104970001F90189570CE0895DC01ED91FC91019087
:10498000F081E02D099508950F931F93CF93DF9346
:10499000EC016DE0F1DF8C016AE0CE01EDDF800F0C
:1049A000911FDF91CF911F910F9108950C94462F85
:1049B00008950C94DE2F08951F920F920FB60F9258
:1049C00011242F933F938F939F93AF93BF93809125
:1049D000CF039091D003A091D103B091D203309135
:1049E000CE0323E0230F2D3720F40196A11DB11D26
:1049F00005C026E8230F0296A11DB11D2093CE030A
:104A00008093CF039093D003A093D103B093D203AC
:104A10008091D3039091D403A091D503B091D60394
:104A20000196A11DB11D8093D3039093D403A0934D
:104A3000D503B093D603BF91AF919F918F913F91D2
:104A40002F910F900FBE0F901F9018952FB7F894CD
:104A50006091CF037091D0038091D1039091D203E4
:104A60002FBF08953FB7F8948091D3039091D4035A
:104A7000A091D503B091D60326B5A89B02C02F3FC5
:104A800089F43FBF6627782F892F9A2F620F711DF7
:104A9000811D911DF2E0660F771F881F991FFA95FF
:104AA000D1F708950196A11DB11DEBCF0197009795
:104AB00039F0880F991F880F991F02970197F1F716
:104AC0000895789484B5826084BD84B5816084BD86
:104AD00085B5826085BD85B5816085BDEEE6F0E077
:104AE000808181608083E1E8F0E0108280818260D3
:104AF0008083808181608083E0E8F0E08081816054
:104B00008083E1EBF0E0808184608083E0EBF0E083
:104B1000808181608083EAE7F0E080818460808327
:104B200080818260808380818160808380818068D1
:104B300080831092C1000895CF93DF9390E0FC0131
:104B4000EF52FA4F2491FC01EB51FA4F84918823E4
:104B500049F190E0880F991FFC01E35FF94FA5919F
:104B6000B4918D5F994FFC01C591D4919FB76111AC
:104B700008C0F8948C91209582238C93888182239D
:104B80000AC0623051F4F8948C91322F309583230F
:104B90008C938881822B888304C0F8948C91822B1B
:104BA0008C939FBFDF91CF910895A1E0B0E0EBED32
:104BB000F5E20C941D2F282F30E0F901E354FA4F51
:104BC0008491F901EF52FA4F1491F901EB51FA4F28
:104BD00004910023C1F0882319F0698313DD6981F2
:104BE000E02FF0E0EE0FFF1FED5FF94FA591B491BC
:104BF0009FB7F8948C91611103C01095812301C077
:104C0000812B8C939FBF2196E4E00C94392FCF9396
:104C1000DF93282F30E0F901E354FA4F8491F90132
:104C2000EF52FA4FD491F901EB51FA4FC491CC23D2
:104C300079F08111E7DCEC2FF0E0EE0FFF1FE75079
:104C4000FA4FA591B4912C912D2381E090E011F4BD
:104C500080E090E0DF91CF9108950895CF92DF92A8
:104C6000EF92FF92CF93DF936B017C01FBDEEB01B0
:104C7000C114D104E104F10479F0EFDFF3DE6C1B21
:104C80007D0B683E7340A0F381E0C81AD108E108AB
:104C9000F108C851DC4FECCFDF91CF91FF90EF903E
:104CA000DF90CF900895FFCF1092DA031092D903CE
:104CB00088EE93E0A0E0B0E08093DB039093DC0308
:104CC000A093DD03B093DE038CE192E09093D803D0
:104CD0008093D70385EC90E09093E4038093E30303
:104CE00084EC90E09093E6038093E50380EC90E001
:104CF0009093E8038093E70381EC90E09093EA03BC
:104D00008093E90382EC90E09093EC038093EB03B3
:104D100086EC90E09093EE038093ED031092F00305
:104D20001092F1031092F2031092F30308952EE112
:104D300031E0FC013183208308952EE131E0FC0154
:104D40003183208336CE0895A1E0B0E0EAEAF6E2AE
:104D50000C941D2F8C01DC01ED91FC910280F381FC
:104D6000E02D698309956981681759F0F80162831C
:104D70008091B000662311F0806201C08F7D809326
:104D8000B0002196E4E00C94392F61E083E0D4DE9A
:104D900081E28093B0008BE08093B1008DE7809337
:104DA000B3008EE38093B4000895A0E0B0E0EBED93
:104DB000F6E20C941A2FD62E7A01C0E0D0E0062F2E
:104DC00010E001501109CD15B8F48091B000806257
:104DD0008093B000B70189E592E099D78091B00047
:104DE0008F7D8093B000C017D10724F4B70189E507
:104DF00092E08DD72196E7CFCDB7DEB7E7E00C94F0
:104E0000362F109276048CE292E090937504809392
:104E1000740408958EE191E0909375048093740476
:104E200008950C940000089508954BDE0E949F039E
:104E3000CCE4D3E20E940D042097E1F32DDCFACFFD
:104E40001F920F920FB60F921124FFCF089539D3FE
:104E50004CE750E0682F80E061C9089540E856E0D3
:104E600060E087E05BC90895A4E0B0E0E9E3F7E221
:104E7000E6C782E6898386E68A8380E78B838FE6AE
:104E80008C831FD38C0F9D1F60E0FC0181810E94E9
:104E900050172496E2E0EFC76F927F929F92AF92F5
:104EA000BF92CF92DF92EF92FF920F931F93CF9317
:104EB000DF931F92CDB7DEB77C018B015A016901E8
:104EC0008AE592E01BD73C01912CB3018AE592E080
:104ED00005D70A9750F50E944214882339F08AE5D5
:104EE00092E00CD73C01F701099502C0911004C073
:104EF000F8010995912C05C0F0E89F1202C0F50158
:104F000009958091FC02882349F01092FC02898364
:104F1000F8010995F6010995898108C0939463E029
:104F200070E089E592E0F3D6D0CF80E00F90DF917A
:104F3000CF911F910F91FF90EF90DF90CF90BF9096
:104F4000AF909F907F906F90089542E050E060E0B6
:104F500070E080E090E0A5D22DE838E247E257E229
:104F60006EE970E286E297E297CF0895CF93C09101
:104F7000CC038C2F8C7F29D9E8DF8C2F26D9CF91B9
:104F80000895CF93C0912A036C2F84E392E00E948E
:104F90001F0443E050E060E070E090E082D226EA37
:104FA00038E24EE257E26AEF70E284E397E274DFA0
:104FB000811104C060E08C2F0E945017CF9108959A
:104FC000A9E0B0E0E5EEF7E22CC72B016A01490148
:104FD000FC0109957C01A0903403B09035036091E9
:104FE0003603709137039058029718F4E12C88EC3F
:104FF000F82E882777FD8095982F0E94831C3C010E
:10500000B501882777FD8095982F0E94831C5C014D
:10501000B701882777FD8095982F0E94831CA301F4
:10502000B5013FD28AE592E069D65C01712CB501E9
:105030008AE592E053D60A9708F04CC00E944214C9
:10504000882389F18AE592E059D65C013AD20E9420
:10505000BB1C7C01AC01602F8CE00ED88091FC025F
:10506000882321F31092FC02C701F2010995A701E0
:10507000662757FD6095762F09E021E0CE01019665
:105080000E94441C9F938F93DF92CF9283E296E01D
:105090009F938F93F40109950F900F900F900F90AD
:1050A0000F900F9017C0711006C0A701602F8CE001
:1050B0000E943C2008C0F0E87F1205C04CE750E099
:1050C000602F8CE02BD8739463E070E089E592E068
:1050D0001ED6ADCF2996E0E1C0C60F931F9302E024
:1050E00010E020ED31E14CE156E060EC79E186EC36
:1050F00097E166DF1F910F9108950F931F9301E0D1
:1051000010E021E731E147E156E061E979E18FEA1A
:1051100097E156DF1F910F910895D3D1813091050A
:1051200039F08230910559F0892B79F42ACF08950E
:1051300060E082E60E9450175DD8DFCF089560E0FE
:1051400086E60E94501756D8C8CF089580912A034A
:10515000823611F4D2CF0895863611F4BECF089569
:10516000803719F48FE596E004C08F3641F48EE362
:1051700096E09F938F930E9471110F900F90089566
:105180001F93CF93DF93EC01162F6B8360E0812F89
:10519000D3DC612F70E0FB01EF52FA4FE491E8831A
:1051A000FB01EB51FA4FE491F0E0EE0FFF1FE750E7
:1051B000FA4F859194919A838983DF91CF911F91C2
:1051C0000895FF920F931F93CF93DF93FC0100810B
:1051D000C181D281F8948981F02EF0948F21898346
:1051E00078941DE7115009F182E090E05FDC88813E
:1051F0008023C1F3F8948A818F218A838981802B4F
:105200008983789480EE91E051DCF89489818F2134
:10521000898386E490E04ADC8881802311E009F0EC
:1052200010E078948AE991E041DC812FCDB7DEB7B8
:10523000E5E01EC60F931F93CF93DF93FC0110810F
:10524000C181D281662319F007E38AE002C005E03C
:1052500081E4F8942A81912F909592239A839981E1
:10526000912B998390E022DC9A81912B9A837894F8
:10527000802F90E01BDCDF91CF911F910F9108955B
:105280000F931F93CF93DF93FC011081C181D281D3
:10529000F8948981812B89838A81012F009580234D
:1052A0008A8383E090E002DC8981802389838AE01D
:1052B00090E0FCDBC881789485E390E0F7DB1C2369
:1052C00081E009F480E0DF91CF911F910F91089563
:1052D000EF92FF920F931F93CF93DF938C01E62EF3
:1052E000C8E0D0E0FF24F39461E09F2D9E2109F4F3
:1052F00060E0C8019FDFFF0C21972097A9F7CDB789
:10530000DEB7E6E0B4C5EF92FF920F931F93CF9301
:10531000DF938C01C8E0D0E0F12CEE24E394C801C7
:10532000AFDF8111FE28EE0C21972097C1F78F2D5A
:10533000CDB7DEB7E6E09BC5A0E0B0E0E1EAF9E278
:1053400078C5EC017B018A0169019ADFF80180834D
:10535000CE0196DFF6018083F8019081911103C0A0
:10536000811105C006C0913011F4813011F0F701B0
:105370009083F7016081CE015DDFCDB7DEB7E8E055
:1053800074C5823119F487E794E0089580E090E0D5
:105390000895843030F4E82FF0E0E75CFD4F808121
:1053A00008958FEF0895811102C084E008958FEF72
:1053B0000895811102C082E108958FEF089562E19E
:1053C00082E894E0DDDE87E794E00EC808951F923E
:1053D0000F920FB60F9211242F933F934F935F9329
:1053E0006F937F938F939F93AF93BF93EF93FF93AD
:1053F0004F9B0E943A14FF91EF91BF91AF919F9103
:105400008F917F916F915F914F913F912F910F906D
:105410000FBE0F901F9018951F920F920FB60F920C
:1054200011242F933F934F935F936F937F938F93A9
:105430009F93AF93BF93EF93FF9383B163B191E0D9
:10544000669561706927817089270E94F413FF9126
:10545000EF91BF91AF919F918F917F916F915F91EC
:105460004F913F912F910F900FBE0F901F90189565
:1054700062E088E061DB62E089E05EDB62E087E0B9
:105480005BDBE8E6F0E0808185608083EBE6F0E0BE
:10549000808183608083EDE6F0E080818068808396
:1054A00008952FB7F8949093FE028093FD027093B5
:1054B00000036093FF0250930203409301032FBF48
:1054C00008952FB7F8948091FD029091FE022FBFAE
:1054D0000895CF93DF93EC016C857D858AE592E09A
:1054E000FDD38935924018F08C81846002C08C8194
:1054F0008B7F8C83DF91CF910895FC0125E1629F22
:10550000E00DF11D11243E96DA0180E091919F3D5E
:1055100009F490EB9D938F5F8431C1F7FA01148AEF
:10552000089561E08BE008DB61E08DE005DB61E080
:105530008AE002DB8CB58F7D8CBD8CB582608CBD22
:105540008DB581608DBD8CB588608CBD8CB5846057
:105550008CBD8CB580618CBD8CB580648CBD08958C
:10556000CF93DF93EC0160ED77E089E592E0CFD354
:1055700061E08AE0E1DA88E28D83CE01D2DF1D8628
:105580001C86DF91CF910895CF93DF93EC0160E00B
:105590008AE00BDB8C818EBD0DB407FEFDCF61E090
:1055A0008AE003DBDF91CF910895CF93DF93EC0185
:1055B0008AE592E0A3D39D878C87CE018ADFCE0156
:1055C000E3DFDF91CF910895CF93DF93EC018C81DE
:1055D00082608C83CE01D8DF81E090E067DA8C8135
:1055E0008D7F8C83CE01D0DFDF91CF910895CF9353
:1055F000DF93EC018C8190E1699FB00111248F70E1
:10560000862B8C83CE01C0DFCE01DEDFDF91CF9110
:1056100008950F931F93CF93DF93EC01162F0FB7CD
:10562000F8948C81442311F0816001C08E7F8C83BB
:10563000CE01AADF612F70E084E0759567958A95A9
:10564000E1F7CE01D4DF612FCE01D1DF0FBFDF91B3
:10565000CF911F910F91089540E0DBDF80EA9FE03A
:105660000197F1F70895CF93DF93EC0161E0F4DF48
:1056700020E030E080E240E050E0FE01E20FF31F66
:10568000DF01A40FB51F1E968C934F5F5F4F44310F
:105690005105B1F712A22B5E3F4F2435310559F762
:1056A000DF91CF910895CF93DF93EC0162E0D4DFD7
:1056B00018861986DF91CF910895A4E0B0E0E2E664
:1056C000FBE2BDC3198220E42A8324E12B8324E575
:1056D0002C83FC012285421708F040E0FC01408742
:1056E0006187FE01E40FF11D2181260F2068622FE2
:1056F000B3DF2496E2E0BFC3FC016681262F24605D
:1057000026836C60A9CF0895FC016781262F226053
:1057100027836660A1CF0895FC0167816E7F678350
:1057200064609ACF0895FC012185308545E1349F5E
:10573000E00DF11D1124E20FF11D66872F5FFC01C2
:1057400021872385211106C041E063DF80EA9FE0C5
:105750000197F1F781E090E00895CF93DF93EC019A
:105760004A871886198680E593ECA0D963E0CE01BC
:105770003EDF80E593EC9AD963E0CE0138DF88EE16
:1057800093E094D963E0CE0132DF80E593EC8ED9CB
:1057900062E0CE012CDF80E593EC88D968E2CE018F
:1057A0005BDFCE0160DFCE01AFDFCE01B5DFCE0122
:1057B0007ADFCE01A1DFDF91CF910895CF93DF9300
:1057C000EC018985843120F460E2CE01D5D8F9CF8F
:1057D000DF91CF91089584E794E0D7DA44EF51E068
:1057E00062E084E794E0E1DA0E94F41F41DE80E0A9
:1057F000089560E070E0CB0108950E949E200C9413
:105800003021089580915802882369F0E091740452
:10581000F09175040280F381E02D84E794E009950E
:1058200061E0682701C060E084E794E08DDA809150
:10583000FC02882319F01092FC0298CB08950E9474
:1058400030210E94BB200E94FA208AE693E041CEDC
:10585000089580E008950B96B4DC91E0811101C0B9
:1058600090E0892F0895FC01718360830895FF9271
:105870000F931F93CF93DF93EC018B01F42E88815C
:105880009981E9DFB801888199810E94D9218881B5
:10589000998140E06F2D0B961BDDCDB7DEB7E5E0BB
:1058A000E7C2EF92FF920F931F93CF93DF93EC0128
:1058B0007A014EEBDCDF00E010E0888199810B96E5
:1058C00022DDF70181937F010F5F1F4F0930110522
:1058D000A1F788819981BFDFCDB7DEB7E6E0C7C207
:1058E000A0E0B0E0E5E7FCE2A5C28C017B01EA01A3
:1058F00082E0D82EAE01B701C801D3DF68E0CE0147
:105900000E9493229885891721F0DA9499F780E014
:1059100001C081E0CDB7DEB7E7E0A8C2A0E0B0E00B
:10592000E3E9FCE286C2EC017B018A01C22E4EE46F
:105930009EDF0E5F1F4F93E0D92EF80161918F011A
:105940008881998140E00B96C3DCDA94B1F78881B5
:10595000998181DFCC2071F0B701888199810E9403
:10596000D9218881998140E068E40B96B1DC888177
:10597000998171DFCDB7DEB7E8E077C2A2E0B0E091
:10598000E3ECFCE25AC28C01FC01808191816983C5
:105990007A8361DF69817A81F801808191810E9437
:1059A000D921F8018081918140E068EB0B9690DC71
:1059B0002296E4E05EC21F93CF93DF93EC0144EBA9
:1059C00056DF888199810B965BDC182F888199813D
:1059D00042DF81E0111180E0DF91CF911F910895A6
:1059E000A9E0B0E0E5EFFCE225C28C017B01E3DF3A
:1059F000882311F0D12C2BC0B701C801BFDFAE0145
:105A00004F5F5F4FB701C8016BDFD82E882391F33A
:105A10008D818F3721F08FE78D8381E001C080E099
:105A20009B81992311F01B8202C0882339F021E069
:105A3000AE014F5F5F4FB701C80170DF81E08B831C
:105A400020E0AE014F5F5F4FB701C80167DF8D2DCA
:105A50002996E7E00BC2A2E0B0E0E0E3FDE2EDC191
:105A60008C01FC018081918169837A83F4DE6981F4
:105A70007A81F801808191810E94D921F801808189
:105A8000918140E064E40B9623DC2296E4E0F1C1CE
:105A9000A9E0B0E0EDE4FDE2D2C1AE014F5F5F4F9F
:105AA0001FDF882351F08B81882339F08A8190E0B1
:105AB000982F88272981822B02C080E090E82996C0
:105AC000E2E0D9C1FC0187850895CF93DF93EC0113
:105AD0008CE492E0998388838C819D810E94D924F3
